:020000040800F2
:1000000068040020A90100082D1600083916000810
:1000100041160008491600085116000800000000AB
:1000200000000000000000000000000015020008B1
:10003000150200080000000015020008591600080B
:100040006916000875160008811600088D1600084C
:1000500099160008A51600081502000815020008E8
:100060001502000815020008B11600081502000864
:100070001502000815020008150200081502000804
:100080001502000815020008150200080000000013
:100090000000000000000000000000001502000841
:1000A000150200081502000815020008C116000814
:1000B00015020008CD160008F916000825170008DB
:1000C000311700083D1700084917000855170008A8
:1000D000611700086D1000086D17000879170008F7
:1000E000851700089117000815020008000000009D
:1000F0000000000000000000000000000000000000
:1001000000000000000000000000000000000000EF
:1001100000000000000000001502000815020008A1
:100120005FF808F180B485B000AF78600B467B8043
:100130004FF00003FB734FF00003BB814FF000034F
:100140007B817B681B8A9AB27B881340BB817B686A
:100150009B899AB27B8813407B81BB89002B06D098
:100160007B89002B03D04FF00103FB7302E04FF0BB
:100170000003FB73FB7B184607F11407BD4680BCE8
:10018000704700BF80B483B000AF78600B467B80BF
:100190007B886FEA03039AB27B681A8207F10C0727
:1001A000BD4680BC704700BF80B582B000AF41F64D
:1001B0002013C0F600037B6040F20003C2F200038C
:1001C0003B600BE07B681A683B681A603B6803F190
:1001D00004033B607B6803F104037B603A6840F2F0
:1001E0001803C2F200039A42ECD3084808494FF0C2
:1001F00000028842B8BF40F8042BFADB00F00EF88A
:1002000000F010FA07F10807BD4680BD1800002075
:100210006400002080B400AFFEE700BF80B500AFEF
:100220004FF48053C4F202034FF48052C4F202022E
:10023000126842F001021A604FF48052C4F20202C6
:100240004FF48053C4F2020359684FF00003CFF615
:10025000FF030B4053604FF48053C4F202034FF48A
:100260008052C4F20202126822F0847222F48032B8
:100270001A604FF48053C4F202034FF48052C4F268
:100280000202126822F480221A604FF48053C4F2F2
:1002900002034FF48052C4F20202526822F4FE02BA
:1002A0005A604FF48053C4F202034FF41F029A6065
:1002B0004FF48053C4F202034FF00002DA6200F000
:1002C00009F84FF46D43CEF200034FF000629A60DC
:1002D00080BD00BF80B500AF00F002F880BD00BF58
:1002E00080B483B000AF4FF000037B604FF0000399
:1002F0003B604FF48053C4F202034FF48052C4F2C7
:100300000202126842F480321A604FF48053C4F241
:1003100002031B6803F400333B607B6803F10103B5
:100320007B603B68002B03D17B68B3F5A06FECD1F9
:100330004FF48053C4F202031B6803F40033002B14
:1003400003D04FF001033B6002E04FF000033B603D
:100350003B68012B6DD14FF48053C4F202034FF47C
:100360008052C4F2020252685A604FF48053C4F2C1
:1003700002034FF48052C4F2020252685A604FF4F2
:100380008053C4F202034FF48052C4F20202526856
:100390005A604FF48053C4F202034FF48052C4F207
:1003A0000202526822F47C125A604FF48053C4F265
:1003B00002034FF48052C4F20202526842F49812CF
:1003C0005A604FF48053C4F202034FF48052C4F2D7
:1003D0000202126842F080721A6000BF4FF480532C
:1003E000C4F202031B6803F00073002BF6D04FF435
:1003F0008053C4F202034FF48052C4F202025268E6
:1004000022F003025A604FF48053C4F202034FF407
:100410008052C4F20202526842F002025A6000BFE7
:100420004FF48053C4F202035B6803F00C03082B03
:10043000F6D107F10C07BD4680BC704780B489B087
:1004400000AF786039604FF00003FB614FF00003AC
:100450003B614FF00003BB614FF00003FB604FF0C6
:1004600000037B614FF00003BB603B68DB7803F067
:100470000F03FB613B68DB7803F01003002B04D013
:100480003B689B78FA691343FB613B681B88DBB2CE
:10049000002B4ED07B681B687B614FF00003BB6173
:1004A00041E0BB694FF0010202FA03F3FB603B68D5
:1004B0001B881A46FB6813403B613A69FB689A4205
:1004C0002DD1BB694FEA8303FB60FB684FF00F023D
:1004D00002FA03F3BB60BB686FEA03037A69134057
:1004E0007B61FB68FA6902FA03F37A6913437B6163
:1004F0003B68DB78282B07D1BB694FF0010202FA79
:1005000003F27B685A610AE03B68DB78482B06D12E
:10051000BB694FF0010202FA03F27B681A61BB6902
:1005200003F10103BB61BB69072BBAD97B687A6908
:100530001A603B681B88FF2B53D97B685B687B6123
:100540004FF00003BB6146E0BB6903F108034FF0C5
:10055000010202FA03F3FB603B681B881A46FB6842
:1005600013403B613A69FB689A4230D1BB694FEA5C
:100570008303FB60FB684FF00F0202FA03F3BB60DA
:10058000BB686FEA03037A6913407B61FB68FA6911
:1005900002FA03F37A6913437B613B68DB78282B0B
:1005A00008D1BB6903F108034FF0010202FA03F21C
:1005B0007B685A613B68DB78482B08D1BB6903F143
:1005C00008034FF0010202FA03F27B681A61BB696B
:1005D00003F10103BB61BB69072BB5D97B687A695D
:1005E0005A6007F12407BD4680BC704780B483B0D1
:1005F00000AF78600B467B807A887B681A6107F1D0
:100600000C07BD4680BC704780B483B000AF7860F3
:100610000B467B807A887B685A6107F10C07BD46E0
:1006200080BC704780B588B000AF00F0E7F800F0FC
:100630003FFC41F60C13C0F600031B88BB8207F198
:1006400016034FF000021A8003F102034FF000027C
:100650001A8003F102034FF000021A8003F1020333
:100660004FF000021A8003F1020341F61813C0F69E
:10067000000307F10C0293E8030082E8030040F254
:100680002003C2F200031B78012B38D107F10403C9
:10069000184600F0CFFC40F22003C2F200034FF0F6
:1006A00000021A7040F21803C2F200034FF0000279
:1006B0001A601BE040F21803C2F200031B687A685C
:1006C000127807F12001CB1803F80C2C7B6803F19A
:1006D00001037B6040F21803C2F200031B6803F1C0
:1006E000010240F21803C2F200031A6040F218033C
:1006F000C2F200031B681A46BB689A42DAD307F1BC
:100700000C03184600F04AFC4FF48050C4F201007C
:100710004FF40071FFF76AFF4FF4967000F00AF98A
:100720004FF48050C4F201004FF40071FFF76CFFEA
:100730004FF4967000F0FEF8A1E700BF80B483B0DC
:1007400000AF03463960FB7197F90730002B10DAD0
:100750004FF46D43CEF20003FA7902F00F02A2F1DA
:1007600004013A68D2B24FEA0212D2B25B181A768A
:100770000DE04FF46143CEF2000397F907103A6899
:10078000D2B24FEA0212D2B25B1883F8002307F10B
:100790000C07BD4680BC704780B582B000AF786062
:1007A0007A686FF07F439A4202D94FF001031FE04D
:1007B0004EF21003CEF200037A6822F07F4202F17B
:1007C000FF325A604FF0FF304FF00F01FFF7B6FFD6
:1007D0004EF21003CEF200034FF000029A604EF288
:1007E0001003CEF200034FF007021A604FF000032F
:1007F000184607F10807BD4680BD00BF80B500AFB1
:1008000000F008F800F058F800F070F800F074F804
:1008100080BD00BF80B582B000AF4FF4803000F0E3
:10082000B3F800F0F5F80346FB71FB79012B2FD1EB
:100830004FF0020000F0B8FE4FF0100000F0D4FEC0
:100840004FF0000000F07AF94FF0000000F0B6F928
:100850004FF4806000F092F94FF480304FF4802123
:1008600000F008F94FF0010000F028F900BF4FF048
:10087000390000F0D5FA0346002BF8D04FF0020003
:1008800000F02CF900BF00F049F90346082BFAD11B
:1008900040F22C00C2F2000000F0B2F945F6BF5061
:1008A000FFF77AFF44F2FD104FF0010100F08EFADD
:1008B00007F10807BD4680BD80B582B000AF4FF09C
:1008C0001003FB714FF00103BB714FF44073BB8009
:1008D00007F104034FF48050C4F201001946FFF7FA
:1008E000ADFD07F10807BD4680BD00BF80B400AF75
:1008F000BD4680BC704700BF80B400AFBD4680BC21
:10090000704700BF80B400AF40F24003C2F2000362
:100910001B68002B0BD040F24003C2F200031B689F
:1009200003F1FF3240F24003C2F200031A60BD46F9
:1009300080BC704780B483B000AF78607A6840F2C2
:100940004003C2F200031A6000E000BF40F240031F
:10095000C2F200031B68002BF7D107F10C07BD465C
:1009600080BC704780B400AF40F21C03C2F20003A9
:100970001B6803F1010240F21C03C2F200031A607B
:10098000BD4680BC704700BF80B483B000AF7860C4
:100990004FF48053C4F202034FF48052C4F20202B7
:1009A000126822F480321A604FF48053C4F20203BA
:1009B0004FF48052C4F20202126822F480221A60BC
:1009C0007B68B3F5803F03D0B3F5802F0DD019E0DD
:1009D0004FF48053C4F202034FF48052C4F2020277
:1009E000126842F480321A600DE04FF48053C4F272
:1009F00002034FF48052C4F20202126842F4A022B1
:100A00001A6000E000BF07F10C07BD4680BC7047CC
:100A100080B582B000AF4FF000033B604FF00003A1
:100A2000FB714FF00003BB714FF0310000F0F8F99B
:100A30000346BB713B6803F101033B603B68B3F5C0
:100A4000A06F02D0BB79002BEED04FF0310000F048
:100A5000E7F90346002B03D04FF00103FB7102E0DE
:100A60004FF00003FB71FB79184607F10807BD46FC
:100A700080BD00BF80B485B000AF786039604FF0B2
:100A80000003FB604FF48053C4F202035B68FB6019
:100A9000FB6823F47413FB607A683B681343FA68BD
:100AA0001343FB604FF48053C4F20203FA685A60A8
:100AB00007F11407BD4680BC704700BF80B483B007
:100AC00000AF0346FB714FF06003C4F24223FA7992
:100AD0001A6007F10C07BD4680BC704780B485B032
:100AE00000AF78604FF00003FB604FF48053C4F216
:100AF00002035B68FB60FB6823F00303FB60FA689A
:100B00007B681343FB604FF48053C4F20203FA681E
:100B10005A6007F11407BD4680BC704780B400AF2F
:100B20004FF48053C4F202035B68DBB203F00C03A2
:100B3000DBB21846BD4680BC704700BF80B485B0AC
:100B400000AF78604FF00003FB604FF48053C4F2B5
:100B500002035B68FB60FB6823F0F003FB60FA684C
:100B60007B681343FB604FF48053C4F20203FA68BE
:100B70005A6007F11407BD4680BC704780B485B049
:100B800000AF78604FF00003FB604FF48053C4F275
:100B900002035B68FB60FB6823F4E063FB60FA68B8
:100BA0007B681343FB604FF48053C4F20203FA687E
:100BB0005A6007F11407BD4680BC704780B485B009
:100BC00000AF78604FF00003FB604FF48053C4F235
:100BD00002035B68FB60FB6823F46053FB607B6887
:100BE0004FEAC303FA681343FB604FF48053C4F227
:100BF0000203FA685A6007F11407BD4680BC7047CB
:100C000080B489B000AF78604FF00003FB614FF013
:100C10000003BB614FF000037B614FF000033B61B9
:100C20004FF00003FB604FF48053C4F202035B6893
:100C300003F00C03FB61FB69042B0AD0082B0FD0D7
:100C4000002B47D17A684FF49053C0F27A031360B7
:100C500047E07A684FF49053C0F27A03136040E0A3
:100C60004FF48053C4F202035B6803F47013BB615A
:100C70004FF48053C4F202035B6803F480337B615A
:100C8000BB694FEA934303F10203BB617B69002B0D
:100C900009D1BA694FF41063C0F23D0303FB02F2BD
:100CA0007B681A601DE04FF48053C4F20203DB6AD4
:100CB00003F00F0303F10103FB604FF49053C0F204
:100CC0007A03FA68B3FBF2F3BA6902FB03F27B68BA
:100CD0001A6006E07A684FF49053C0F27A0313600A
:100CE00000BF4FF48053C4F202035B6803F0F003CB
:100CF000FB61FB694FEA1313FB6140F20003C2F290
:100D00000003FA699B181B78DBB23B617B681A68A9
:100D10003B6922FA03F27B685A604FF48053C4F2B5
:100D200002035B6803F4E063FB61FB694FEA132392
:100D3000FB6140F20003C2F20003FA699B181B78C2
:100D4000DBB23B617B685A683B6922FA03F27B683D
:100D50009A604FF48053C4F202035B6803F460535B
:100D6000FB61FB694FEAD323FB6140F20003C2F24F
:100D70000003FA699B181B78DBB23B617B685A68F9
:100D80003B6922FA03F27B68DA604FF48053C4F2C5
:100D900002035B6803F44043FB61FB694FEA933352
:100DA000FB6140F21003C2F20003FA699B181B7842
:100DB000DBB23B617B68DA683B69B2FBF3F27B68CC
:100DC0001A6107F12407BD4680BC704780B483B028
:100DD00000AF78600B46FB70FB78002B0CD04FF413
:100DE0008053C4F202034FF48052C4F202029169AC
:100DF0007A680A439A610DE04FF48053C4F202030B
:100E00004FF48052C4F2020291697A686FEA0202DA
:100E10000A409A6107F10C07BD4680BC704700BFCD
:100E200080B487B000AF0346FB714FF00003FB6056
:100E30004FF000037B614FF00003FB74FB794FEA36
:100E40005313DBB2FB60FB68012B06D14FF48053D8
:100E5000C4F202031B687B610FE0FB68022B06D122
:100E60004FF48053C4F202031B6A7B6105E04FF428
:100E70008053C4F202035B6A7B61FB7903F01F03BA
:100E8000FB60FB687A6922FA03F303F00103002B8D
:100E900003D04FF00103FB7402E04FF00003FB743A
:100EA000FB7C184607F11C07BD4680BC704700BF9D
:100EB00080B586B000AF4FF40073BB804FF00103E4
:100EC000BB714FF01803FB7107F104034FF400608E
:100ED000C4F201001946FFF7B1FA4FF48063BB80FA
:100EE0004FF00103BB714FF00403FB7107F10403E2
:100EF0004FF40060C4F201001946FFF79FFA4FF467
:100F00001653BB604FF00003BB814FF00003FB8121
:100F10004FF000033B824FF00003BB824FF00C0305
:100F20007B8207F108034FF46050C4F201001946B8
:100F300000F06AF94FF46050C4F201004FF0010173
:100F400000F038FA4FF4C06000F028FC4FF02503A1
:100F50003B704FF000037B704FF00003BB704FF00D
:100F60000103FB703B46184600F02CFC40F2600386
:100F7000C2F2000340F25402C2F200021A604FF4BF
:100F80006050C4F2010040F225514FF0010200F020
:100F900031FA07F11807BD4680BD00BF80B582B0A9
:100FA00000AF786040F21403C2F200031B78012BFB
:100FB00027D1786800F07AFC024640F24403C2F27E
:100FC00000031A6040F25003C2F200037A681A600C
:100FD0004FF46050C4F2010040F227714FF001025B
:100FE00000F008FA40F21403C2F200034FF00002CE
:100FF0001A7040F22803C2F200034FF000021A7088
:1010000014E040F22803C2F200031B78012B0DD13B
:1010100040F21403C2F200034FF001021A7040F2D2
:101020002903C2F200034FF001021A7007F108070A
:10103000BD4680BD80B483B000AF786040F2480305
:10104000C2F2000340F25402C2F200021A607A684F
:1010500040F24803C2F2000393E8030082E8030071
:10106000786807F10C07BD4680BC704798B500AFA3
:101070004FF46050C4F2010040F2255100F032FA02
:101080000346002B5DD040F26003C2F200031C68EF
:101090004FF46050C4F2010000F012FA0346DBB2D4
:1010A000237040F22403C2F200031B680A2B07D00E
:1010B00040F26003C2F200031B681B78252B21D18C
:1010C00040F22403C2F200031A6840F24803C2F25D
:1010D00000035A6040F22403C2F200034FF0000202
:1010E0001A6040F26003C2F2000340F25402C2F2FE
:1010F00000021A6040F22003C2F200034FF0010226
:101100001A701EE040F22003C2F200034FF000020A
:101110001A7040F26003C2F200031B6803F101027F
:1011200040F26003C2F200031A6040F22403C2F2EC
:1011300000031B6803F1010240F22403C2F2000322
:101140001A604FF46050C4F2010040F2277100F0C1
:10115000C9F90346002B45D040F24403C2F2000314
:101160001B68002B06D140F22803C2F200031B7853
:10117000002B1FD140F25003C2F200031B681A7803
:1011800003F1010140F25003C2F2000319604FF471
:101190006050C4F20100114600F07EF940F24403B1
:1011A000C2F200031B6803F1FF3240F24403C2F2B3
:1011B00000031A6040F24403C2F200031B68002BD4
:1011C00010D14FF46050C4F2010040F227714FF08B
:1011D000000200F00FF940F22803C2F200034FF0C2
:1011E00001021A7098BD00BF80B483B000AF786070
:1011F0004FF48063C4F201037A685A6107F10C0767
:10120000BD4680BC704700BF80B58CB000AF786031
:1012100039604FF00003FB624FF00003BB624FF0F8
:1012200000037B624FF000033B624FF00003FB6161
:101230007B68FB617B681B8A9BB2FB62FA6A4CF697
:10124000FF731340FB623B68DB88FA6A1343FB625F
:10125000FB6A9AB27B681A827B689B899BB2FB62AD
:10126000FA6A4EF6F3131340FB623B689A883B68B8
:101270001B8913439AB23B685B8913439BB2FA6A9A
:101280001343FB62FB6A9AB27B689A817B689B8AF4
:101290009BB2FB62FA6A4FF6FF431340FB623B6866
:1012A0009B89FA6A1343FB62FB6A9AB27B689A8253
:1012B00007F108031846FFF7A3FCFA694FF46053DF
:1012C000C4F201039A4202D17B69BB6201E03B692F
:1012D000BB627B689B899BB29BB21BB2002B0FDA6F
:1012E000BA6A13464FEA83039B184FEA83029A189F
:1012F0003B681B684FEA4303B2FBF3F37B620EE0EB
:10130000BA6A13464FEA83039B184FEA83029A187E
:101310003B681B684FEA8303B2FBF3F37B627A6A94
:1013200048F21F53C5F2EB13A3FB02134FEA53130A
:101330004FEA0313FB62FB6A4FEA13134FF0640298
:1013400002FB03F37A6AD31A3B627B689B899BB2E8
:101350009BB21BB2002B12DA3B6A4FEAC30303F1C4
:10136000320248F21F53C5F2EB13A3FB02134FEAFC
:10137000531303F00703FA6A1343FB6211E03B6A5D
:101380004FEA031303F1320248F21F53C5F2EB1385
:10139000A3FB02134FEA531303F00F03FA6A13433C
:1013A000FB62FB6A9AB27B681A8107F13007BD467F
:1013B00080BD00BF80B483B000AF78600B46FB7087
:1013C000FB78002B08D07B689B899BB243F40053C9
:1013D0009AB27B689A8107E07B689B899BB223F471
:1013E00000539AB27B689A8107F10C07BD4680BC16
:1013F000704700BF80B487B000AF786013460A46DC
:101400007A807B704FF000033B614FF00003FB607C
:101410004FF00003BB604FF000037B617B687B6192
:101420007B88DBB24FEA5313DBB23B617B8803F06E
:101430001F03FB60FB684FF0010202FA03F3BB607D
:101440003B69012B04D17B6903F10C037B610BE049
:101450003B69022B04D17B6903F110037B6103E03C
:101460007B6903F114037B617B78002B06D07B69D9
:101470007A691168BA680A431A6007E07B697A6979
:101480001168BA686FEA02020A401A6007F11C0785
:10149000BD4680BC704700BF80B483B000AF7860A9
:1014A0000B467B807B884FEAC3534FEAD3539AB2F3
:1014B0007B689A8007F10C07BD4680BC704700BF6F
:1014C00080B483B000AF78607B689B889BB24FEAA2
:1014D000C3534FEAD3539BB2184607F10C07BD46DE
:1014E00080BC704780B487B000AF78600B467B80CB
:1014F0004FF00003FB604FF000037B614FF00003EF
:10150000BB604FF00003FB747B88DBB24FEA5313E0
:10151000DBB2BB607B8803F01F037B617B694FF00C
:10152000010202FA03F37B61BB68012B06D17B68E1
:101530009B899BB27A6913407B610FE0BB68022BE9
:1015400006D17B681B8A9BB27A6913407B6105E0F8
:101550007B689B8A9BB27A6913407B617B884FEAE8
:1015600013239BB2FB60FB684FF0010202FA03F306
:10157000FB607B681B889BB2FA681340FB607B6949
:10158000002B06D0FB68002B03D04FF00103FB7447
:1015900002E04FF00003FB74FB7C184607F11C07C8
:1015A000BD4680BC704700BF80B485B000AF786096
:1015B0004FF00003FB604FF40053C4F202031B68BA
:1015C000FB60FB6803F03803FB60FA687B68134339
:1015D000FB604FF40053C4F20203FA681A6007F18B
:1015E0001407BD4680BC704780B483B000AF7860FC
:1015F0004FF40053C4F202034FF40052C4F202024B
:10160000126822F010021A604FF40053C4F2020371
:101610004FF40052C4F2020211687A680A431A6059
:1016200007F10C07BD4680BC704700BF80B400AF17
:10163000BD4680BC704700BF80B400AFFEE700BF6E
:1016400080B400AFFEE700BF80B400AFFEE700BF8C
:1016500080B400AFFEE700BF80B500AFFFF752F9DE
:10166000FFF780F980BD00BF80B400AFBD4680BCED
:10167000704700BF80B400AFBD4680BC704700BF5C
:1016800080B400AFBD4680BC704700BF80B400AFDF
:10169000BD4680BC704700BF80B400AFBD4680BC73
:1016A000704700BF80B400AFBD4680BC704700BF2C
:1016B00080B500AF4FF01000FFF796FD80BD00BF72
:1016C00080B400AFBD4680BC704700BF80B500AF9E
:1016D0004FF48060C4F200004FF00101FEF722FDDC
:1016E0000346002B07D04FF48060C4F200004FF097
:1016F0000101FEF747FD80BD80B500AF4FF40060EB
:10170000C4F200004FF00101FEF70CFD0346002B70
:1017100007D04FF40060C4F200004FF00101FEF763
:1017200031FD80BD80B400AFBD4680BC704700BFB6
:1017300080B400AFBD4680BC704700BF80B400AF2E
:10174000BD4680BC704700BF80B400AFBD4680BCC2
:10175000704700BF80B400AFBD4680BC704700BF7B
:1017600080B400AFBD4680BC704700BF80B400AFFE
:10177000BD4680BC704700BF80B400AFBD4680BC92
:10178000704700BF80B400AFBD4680BC704700BF4B
:1017900080B400AFBD4680BC704700BF80B483B04A
:1017A00000AF78604FF46D43CEF200037A6842F0E8
:1017B000BF6242F40032DA6007F10C07BD4680BC1C
:1017C000704700BF80B487B000AF78604FF000036F
:1017D0007B614FF000033B614FF00F03FB607B68C0
:1017E000DB78002B47D04FF46D43CEF20003DB686B
:1017F0006FEA030303F4E0634FEA13237B617B6921
:10180000C3F104033B617B69FA6822FA03F3FB60CE
:101810007B685B781A463B6902FA03F37B617B685D
:101820009B781A46FB6813407A6913437B617B6996
:101830004FEA03137B614FF46143CEF200037A68F1
:10184000127811467A69D2B25B1883F800234FF4FC
:101850006143CEF200037A6812784FEA5212D2B294
:101860007968097801F01F014FF0010000FA01F1D9
:1018700043F8221014E04FF46143CEF200037A687B
:1018800012784FEA5212D2B27968097801F01F013A
:101890004FF0010000FA01F102F1200243F822109A
:1018A00007F11C07BD4680BC704700BF20F0030154
:1018B00010F00300C0F1000051F8043B00F1040CEB
:1018C0004FEACC0C6FF000021CBF22FA0CF213435B
:1018D0004FF0010C4CEA0C2C4CEA0C4CA3EB0C0224
:1018E00022EA030212EACC1204BF51F8043B04308E
:1018F000F4D013F0FF0F1FBF013013F47F4F0130FE
:1019000013F47F0F18BF0130704700BF00000000C4
:10191000000000000000000070617472796B0A0022
:101920000000000001020304010203040607080985
:0819300002040608010000009A
:0400000508000000EF
:00000001FF
